{
  "transactions": [
    {
      "hash": "0xfd22e54e2fc92377b4033b916f588639bf06f45ad6553d244b0891643176cc4f",
      "transactionType": "CREATE",
      "contractName": "DeFiHub",
      "contractAddress": "0x5fbdb2315678afecb367f032d93f642f64180aa3",
      "function": null,
      "arguments": [
        "0xf39Fd6e51aad88F6F4ce6aB8827279cffFb92266",
        "0x70997970C51812dc3A010C7d01b50e0d17dc79C8",
        "100000000000000000",
        "0x3C44CdDdB6a900fa2b585dd299e03d12FA4293BC"
      ],
      "transaction": {
        "from": "0xf39fd6e51aad88f6f4ce6ab8827279cfffb92266",
        "gas": "0x4ba045",
        "value": "0x0",
        "input": "0x60c034620001fe57601f620043d638819003918201601f191683019291906001600160401b0384118385101762000202578160809284926040968752833981010312620001fe57620000518162000216565b6200005f6020830162000216565b9062000072606085850151940162000216565b6001600255620f42406003556710a741a4627800006006556001600160a01b039182169283158015620001f3575b8015620001e8575b620001d757821693848414620001c657670de0b6b3a7640000808211620001a95750916020917fe0d3fddb138b12d11d84f63fbd79dc4d4b25cf023bc9368d5cfd6e8277c9112393856080528660a052600455168060018060a01b03196005541617600555601e600d55600a600e5542600b5562000126336200022b565b5062000132336200029b565b506200013e336200033b565b506200014a33620003d5565b508551908152a351613f269081620004708239608051818181610790015281816110cd01528181611722015281816121a70152612e96015260a05181818161092401528181611106015281816117c401528181611da601526121db0152f35b6044908751906307c83fcf60e41b82525f60048301526024820152fd5b855163367558c360e01b8152600490fd5b855163d92e233d60e01b8152600490fd5b5082821615620000a8565b5082811615620000a0565b5f80fd5b634e487b7160e01b5f52604160045260245ffd5b51906001600160a01b0382168203620001fe57565b6001600160a01b03165f8181525f80516020620043b6833981519152602052604090205460ff1662000296575f8181525f80516020620043b683398151915260205260408120805460ff191660011790553391905f80516020620043968339815191528180a4600190565b505f90565b6001600160a01b03165f8181527f7d7ffb7a348e1c6a02869081a26547b49160dd3df72d1d75a570eb9b698292ec60205260409020547fa49807205ce4d355092ef5a8a18f56e8913cf4a201fbe287825b095693c21775919060ff166200033557815f525f60205260405f20815f5260205260405f20600160ff1982541617905533915f80516020620043968339815191525f80a4600190565b50505f90565b6001600160a01b03165f8181527f3c1b1854ab1360abbb06c8d4c6b2672d4b8cedc5eff522ab19e51d5cb8fdbd4660205260409020547fbf233dd2aafeb4d50879c4aa5c81e96d92f6e6945c906a58f9f2d1c1631b4b26919060ff166200033557815f525f60205260405f20815f5260205260405f20600160ff1982541617905533915f80516020620043968339815191525f80a4600190565b6001600160a01b03165f8181527f8a40f0b47fdc2a0ce293b772acfc7508c8315a4d462786c1adc3a56f92ca2d0560205260409020547f55435dd261a4b9b3364963f7738a7a662ad9c84396d64be3365284bb7f0a5041919060ff166200033557815f525f60205260405f20815f5260205260405f20600160ff1982541617905533915f80516020620043968339815191525f80a460019056fe60406080815260049081361015610063575b361561003d57517f1231ae40000000000000000000000000000000000000000000000000000000008152fd5b517f1231ae40000000000000000000000000000000000000000000000000000000008152fd5b5f803560e01c806301b08d58146130ad57806301ffc9a71461300e57806302f0599614612eba5780630479d64414612e6a5780630905f56014612e475780630918eb1414612e035780630b78f9c014612cb557806313cc959b14612afc57806316934fc414612a8957806320df435914612a4f578063225582ae1461269f57806323630831146123ea578063248a9ca3146123c057806324ea54f4146123855780632e17de78146120d45780632f2ff15d146120aa5780632ffdaf891461208b578063308e2cdb14611fcc57806331d7a26214611fa657806336568abe14611f3a578063372500ab14611d405780634032866414611d025780634917483414611ccd5780634c17b53014611b0d578063554cbef61461183957806357376198146116d457806357c89a7d146116a6578063585cd34b146115c55780635ba1c1a9146115a75780635c975abb1461158357806361d027b31461154e57806362c391d2146114f25780636386c1c714611468578063718dc3c3146105285780637284823c146112d157806374f0314f146112b35780637589cf2f1461101057806375b238fc14610fd55780637b0a47ee14610fb75780637efa748114610f73578063817b1cd214610f545780638a4e79f614610d395780638e18cdfc14610a0c57806391d14854146109bb57806391f03efd146109865780639231cf7414610967578063939d62371461094857806399248ea7146108f75780639e447fc6146108585780639f1433c614610834578063a217fddf14610819578063a694fc3a146106b2578063aaf5eb6814610528578063ab87982714610693578063af368fbd146105cf578063b5627e42146105ac578063c3d2804e1461052d578063c936db1d14610528578063d4f56a4614610502578063d547741f146104c3578063d55be8c6146104a7578063e1b4264c14610488578063eb4af04514610400578063ed21d269146103e1578063ee172546146103c2578063f1887684146103a35763f6f38e7c1461034f5750610011565b903461039f57602060031936011261039f5760209061039673ffffffffffffffffffffffffffffffffffffffff610384613145565b165f52601360205260405f2054151590565b90519015158152f35b5080fd5b50903461039f578160031936011261039f576020906003549051908152f35b50903461039f578160031936011261039f576020906009549051908152f35b50903461039f578160031936011261039f57602090600c549051908152f35b509190346104845760206003193601126104845781359161041f613400565b821561045d57507fca0542093af2ac14ccf6e52b6e1a131c7e2825fb3b51139bf1dd8186a1339e95906003548151908152836020820152a160035580f35b90517f1f2a2005000000000000000000000000000000000000000000000000000000008152fd5b8280fd5b50903461039f578160031936011261039f576020906006549051908152f35b50903461039f578160031936011261039f576020905160648152f35b509190346104845780600319360112610484576104fe91356104f960016104e8613168565b938387528660205286200154613492565b613a77565b5080f35b50903461039f578160031936011261039f57602090516a084595161401484a0000008152f35b61318b565b50903461039f578060031936011261039f5760809161054a613145565b82610553613168565b9273ffffffffffffffffffffffffffffffffffffffff809316815260176020522091165f52602052805f209081549160018101549160ff6003600284015493015416928151948552602085015283015215156060820152f35b50903461039f578160031936011261039f57602090516710a741a4627800008152f35b50903461039f578060031936011261039f576080916105ec613145565b826105f5613168565b9280606083516106048161320a565b8281528260208201528285820152015273ffffffffffffffffffffffffffffffffffffffff809316815260176020522091165f52602052805f209080519061064b8261320a565b825492838352600181015460208401908152606060ff600360028501549486880195865201541694019315158452825194855251602085015251908301525115156060820152f35b50903461039f578160031936011261039f57602090600e549051908152f35b50919034610484576020600319360112610484578135916106d16134b3565b6106d96134ec565b821561045d576003548084106107e55750507f1449c6dd7851abc30abf37f57715f492010519147cc2652fbc38202c18a6ee9090610715613939565b33845260166020528084208054156107d257610730336132db565b60028201805482116107ca575b505061074d8154600a5490613c7c565b60018201555b61075e8482546132c2565b815561076c846008546132c2565b60085561077d8154600a5490613c7c565b60018201554260038201556107b48430337f0000000000000000000000000000000000000000000000000000000000000000613598565b54815193845260208401523392a2600160025580f35b555f8061073d565b6107dd600c54613267565b600c55610753565b60449251917f7c83fcf00000000000000000000000000000000000000000000000000000000083528201525f196024820152fd5b50903461039f578160031936011261039f5751908152602090f35b50903461039f578160031936011261039f57602090610851613373565b9051908152f35b50913461048457602060031936011261048457803591610876613400565b670de0b6b3a76400008084116108c357507fc390a98ace15a7bb6bab611eedfdbb2685043b241a869420043cdfb23ccfee50906108b1613939565b82548151908152846020820152a15580f35b846044939251927f7c83fcf00000000000000000000000000000000000000000000000000000000084528301526024820152fd5b50903461039f578160031936011261039f576020905173ffffffffffffffffffffffffffffffffffffffff7f0000000000000000000000000000000000000000000000000000000000000000168152f35b50903461039f578160031936011261039f57602090600a549051908152f35b50903461039f578160031936011261039f57602090600b549051908152f35b50903461039f578160031936011261039f5760209073ffffffffffffffffffffffffffffffffffffffff601054169051908152f35b50913461048457816003193601126104845773ffffffffffffffffffffffffffffffffffffffff826020946109ee613168565b933581528086522091165f52825260ff815f20541690519015158152f35b50823461039f57608060031936011261039f57610a27613145565b610a2f613168565b60643591604435610a3e6134b3565b610a466134ec565b73ffffffffffffffffffffffffffffffffffffffff8092169283158015610d2f575b610d0757821690818414610cdf578015610cb757600354808210610c815750826010541680158015610c65575b610c365750602090612710610aac600d54836132a2565b04610ac3610aba82846132b5565b92303389613598565b80610bd6575b50610ad981856010541687613759565b60a4846010541693898b5195869485937fd5bcb9b50000000000000000000000000000000000000000000000000000000085528a8d860152602485015260448401528960648401523360848401525af1958615610bcb5795610b8f575b5090610b4691601054169061367d565b808310610b5c5760208385600160025551908152f35b6044928451927f71c4efed0000000000000000000000000000000000000000000000000000000084528301526024820152fd5b919094506020823d602011610bc3575b81610bac60209383613226565b81010312610bbf57905193610b46610b36565b5f80fd5b3d9150610b9f565b8751903d90823e3d90fd5b610be581866005541688613616565b858952600f8352610bfa8a8a209182546132c2565b9055848852600f8252847f400d29b62956105bc2f5dd4fc459f1576c8f6acef73eb64f7578e9371cfb9c88838b8b20548c51908152a289610ac9565b866024918a51917fca0f21b4000000000000000000000000000000000000000000000000000000008352820152fd5b50610c7b815f52601360205260405f2054151590565b15610a95565b866044918a51917f7c83fcf00000000000000000000000000000000000000000000000000000000083528201525f196024820152fd5b8588517f1f2a2005000000000000000000000000000000000000000000000000000000008152fd5b8588517f367558c3000000000000000000000000000000000000000000000000000000008152fd5b8588517fd92e233d000000000000000000000000000000000000000000000000000000008152fd5b5082811615610a68565b50919034610484578060031936011261048457610d54613145565b9060243591610d616134b3565b610d696134ec565b8215610f2c5733855260176020528185209373ffffffffffffffffffffffffffffffffffffffff9182811695865f52602052835f2060ff60038201541615610f04576001018054868110610ecf575090879291610dc4613522565b610dd08730338b613598565b610ddb8782546132b5565b9055610dec86856011541689613759565b836011541691823b15610ecb57610e589284928389938951968795869485937f22867d7800000000000000000000000000000000000000000000000000000000855284016020909392919373ffffffffffffffffffffffffffffffffffffffff60408201951681520152565b03925af18015610ec157610ea9575b5050610e7790601154168461367d565b519081527f0a3fbbea70e93f2daafa3102f5c9a1b8315e6d7a1e43e4bc020bc1162327470a60203392a3600160025580f35b610eb2906131f6565b610ebd57845f610e67565b8480fd5b84513d84823e3d90fd5b8380fd5b83876044928851927fcf4791810000000000000000000000000000000000000000000000000000000084528301526024820152fd5b8285517f33cbf2bc000000000000000000000000000000000000000000000000000000008152fd5b8382517f1f2a2005000000000000000000000000000000000000000000000000000000008152fd5b50903461039f578160031936011261039f576020906008549051908152f35b50903461039f57602060031936011261039f578060209273ffffffffffffffffffffffffffffffffffffffff610fa7613145565b168152600f845220549051908152f35b50913461048457826003193601126104845760209250549051908152f35b50903461039f578160031936011261039f57602090517fa49807205ce4d355092ef5a8a18f56e8913cf4a201fbe287825b095693c217758152f35b50903461039f578160031936011261039f5761102a6134b3565b60ff600754161561128b573382526020906016825280832080541561126357611051613939565b80549261105d336132db565b8560028401918254908181115f146112585760019161107b916132b5565b945b828155015561108e856008546132b5565b600855600c5480611246575b5082611104575b50907f7fc4727e062e336010f2c282598ef5f14facb3de68cf8195c2f23e1454b2b74e92916110f185337f0000000000000000000000000000000000000000000000000000000000000000613616565b82519485528401523392a2600160025580f35b7f00000000000000000000000000000000000000000000000000000000000000009684517f70a082310000000000000000000000000000000000000000000000000000000081523082820152838160248173ffffffffffffffffffffffffffffffffffffffff8d165afa90811561123c57889161120f575b508481106111da575050827f7fc4727e062e336010f2c282598ef5f14facb3de68cf8195c2f23e1454b2b74e959697826111ba836111d295546132c2565b90556111c8826009546132c2565b6009553390613616565b8594936110a1565b90846044928751927f7ff860670000000000000000000000000000000000000000000000000000000084528301526024820152fd5b90508381813d8311611235575b6112268183613226565b81010312610bbf57515f61117c565b503d61121c565b86513d8a823e3d90fd5b61124f906132cf565b600c555f61109a565b50506001819461107d565b8482517f59be8f02000000000000000000000000000000000000000000000000000000008152fd5b9050517fcb0f0392000000000000000000000000000000000000000000000000000000008152fd5b50903461039f578160031936011261039f5760209051620151808152f35b50903461039f57602080600319360112610484576112ed613145565b916112f6613400565b73ffffffffffffffffffffffffffffffffffffffff8093169283156114405760055416831461141857805182810190848252838152611334816131ad565b519020906202a3004201918242116113ec577fd0cd6aa869e35a91a0d7f6614fc84966e0a0f191dd017df0ef1b136548855def949596507f775c507cb0013786eb7bd856c885d8c4c93c44c0019ef9950485d82f624d0d9582805192611399846131ad565b8084528684019386855260017f13cc959b0000000000000000000000000000000000000000000000000000000095868d5260148a52848d20925183555191015581519081528587820152a251908152a280f35b6024866011897f4e487b7100000000000000000000000000000000000000000000000000000000835252fd5b8490517f367558c3000000000000000000000000000000000000000000000000000000008152fd5b8582517fd92e233d000000000000000000000000000000000000000000000000000000008152fd5b50903461039f57602060031936011261039f576114ee611486613145565b9173ffffffffffffffffffffffffffffffffffffffff83169384815260166020526114b482822054946132db565b9481526016602052816002818320015491601960205220549151948594859094939260609260808301968352602083015260408201520152565b0390f35b50913461048457602060031936011261048457357fffffffff0000000000000000000000000000000000000000000000000000000081168091036104845791819281526014602052206001815491015482519182526020820152f35b50903461039f578160031936011261039f5760209073ffffffffffffffffffffffffffffffffffffffff600554169051908152f35b50903461039f578160031936011261039f5760209060ff6001541690519015158152f35b50903461039f578160031936011261039f57602090516202a3008152f35b50346116a35760206003193601126116a3576115df613145565b6115e7613400565b73ffffffffffffffffffffffffffffffffffffffff8091169061160982613e47565b506010548282821614611678575b50816011549182161461164d575b507fdf980d21d8c7bb34800e668dbe003299093bac8e693614151d3c57f73f98a93d8280a280f35b7fffffffffffffffffffffffff00000000000000000000000000000000000000001660115582611625565b7fffffffffffffffffffffffff00000000000000000000000000000000000000001660105583611617565b80fd5b50903461039f578060031936011261039f576020906108516116c6613145565b6116ce613168565b90613876565b5091346104845781600319360112610484576116ee613145565b602435906116fa613400565b73ffffffffffffffffffffffffffffffffffffffff8091169283156118125782156117eb57817f000000000000000000000000000000000000000000000000000000000000000016841480156117c0575b611791575081816117847ffb475a842bad10d3800b61bd1a92e716051afba979b124b583bd99a2d1d7bfd5946020946005541687613616565b600554169451908152a380f35b602490848651917fca0f21b4000000000000000000000000000000000000000000000000000000008352820152fd5b50817f000000000000000000000000000000000000000000000000000000000000000016841461174b565b84517f1f2a2005000000000000000000000000000000000000000000000000000000008152fd5b84517fd92e233d000000000000000000000000000000000000000000000000000000008152fd5b50903461039f578060031936011261039f57611853613145565b92602435916118606134b3565b6118686134ec565b8215611ae75733845260176020528084209273ffffffffffffffffffffffffffffffffffffffff9283871694855f52602052825f20966003880194855460ff8116158015611add575b611ab5576118bd613522565b6118c78333613876565b96600654808910611a8057509089949392918b6118e58882546132b5565b808255426002830155156119ef575b5050506011541691823b15610ecb5785517f69328dec00000000000000000000000000000000000000000000000000000000815273ffffffffffffffffffffffffffffffffffffffff909216908201908152602081018590523360408201529091839183919082908490829060600103925af18015610ec15790869392916119d6575b505082519081527fd1c19fbcd4551a5edfb66d43d2e337c04837afda3482b42bdf569a8fccdae5fb60203392a3519081527f728590e56aa44c8fa9db78ea21cb58f788846a3bc1d7f01329bf02ec301275a060203392a3600160025580f35b6119e2919293506131f6565b610ebd5783908587611977565b60019192939495965001918254611a58577fffffffffffffffffffffffffffffffffffffffffffffffffffffffffffffff001690558890553388526019602052848820805489949392919080611a46575b806118f4565b611a4f906132cf565b90558980611a40565b8588517f24251e43000000000000000000000000000000000000000000000000000000008152fd5b856044918a8a51927f7e7222b70000000000000000000000000000000000000000000000000000000084528301526024820152fd5b8386517f33cbf2bc000000000000000000000000000000000000000000000000000000008152fd5b50848a54106118b1565b517f1f2a2005000000000000000000000000000000000000000000000000000000008152fd5b5091346104845782600319360112610484577fbf233dd2aafeb4d50879c4aa5c81e96d92f6e6945c906a58f9f2d1c1631b4b26805f525f602052825f20335f5260205260ff835f20541615611c995750600754907fffffffffffffffffffffffffffffffffffffffffffffffffffffffffffffff00918460ff808316151691828582161760075516175f14611c0d57507fb8a34678623c94d0d3977ce6d4db867e7e96ffd365f2c0f677563f8dddd4c840916001602092611bcc6134ec565b815416176001557f62e78cea01bee320cd4e420270b5ea74000d11b0c9f74754ebdbfc544b05a258828251338152a15b60ff6007541690519015158152a180f35b6001549060ff821615611c725750916020917fb8a34678623c94d0d3977ce6d4db867e7e96ffd365f2c0f677563f8dddd4c84093166001557f5db9ee0a495bf2e6ff9c91a7834c1ba4fdd244a5e8aa4e537bd38aeae4b073aa828251338152a1611bfc565b83517f8dfc202b000000000000000000000000000000000000000000000000000000008152fd5b60449251917fe2517d3f00000000000000000000000000000000000000000000000000000000835233908301526024820152fd5b50903461039f578160031936011261039f5760209073ffffffffffffffffffffffffffffffffffffffff601154169051908152f35b509134610484576020600319360112610484578160209373ffffffffffffffffffffffffffffffffffffffff92358152601885522054169051908152f35b50903461039f578160031936011261039f57611d5a6134b3565b611d626134ec565b611d6a613939565b338252602060168152818320918254948515611f1357611d89336132db565b936002810194855480821115611eeb57611da390826132b5565b957f00000000000000000000000000000000000000000000000000000000000000009385517f70a082310000000000000000000000000000000000000000000000000000000081523082820152878160248173ffffffffffffffffffffffffffffffffffffffff8a165afa908115611ee1578a91611eb4575b50888110611e7f575050916001611e6188999a611e7096947ffc30cddea38e2bf4d6ea7d3f9ed3b6ad7f176419f4963bd81318067a4aee73fe9a9655600a5490613c7c565b9101556111c8826009546132c2565b519283523392a2600160025580f35b90886044928851927f7ff860670000000000000000000000000000000000000000000000000000000084528301526024820152fd5b90508781813d8311611eda575b611ecb8183613226565b81010312610bbf57515f611e1c565b503d611ec1565b87513d8c823e3d90fd5b8385517f59be8f02000000000000000000000000000000000000000000000000000000008152fd5b90517f59be8f02000000000000000000000000000000000000000000000000000000008152fd5b50903461039f578060031936011261039f57611f54613168565b903373ffffffffffffffffffffffffffffffffffffffff831603611f7e57506104fe919235613a77565b8390517f6697b232000000000000000000000000000000000000000000000000000000008152fd5b50903461039f57602060031936011261039f57602090610851611fc7613145565b6132db565b50919034610484576020600319360112610484578135917fffffffff000000000000000000000000000000000000000000000000000000008316809303610ecb57612015613400565b82845260146020526001828520015415612064575060015f918385526014602052842082815501557fc164ccc5e222126b6014a3afc9b68e3d7f5781c3b4b2c0d93515ff6f711e98228280a280f35b90517fa3fef2f8000000000000000000000000000000000000000000000000000000008152fd5b50903461039f578160031936011261039f57602090600d549051908152f35b509190346104845780600319360112610484576104fe91356120cf60016104e8613168565b6139cf565b50903461039f5760209081600319360112610484578335916120f46134b3565b6120fc6134ec565b821561235d5733845260168152818420908154848110612328575061211f613939565b612128336132db565b6121338584546132b5565b8355612141856008546132b5565b6008558254612152600a5482613c7c565b6001850155426003850155158061231d575b61230a575b60028693019081548082116121cb575b505050907f7fc4727e062e336010f2c282598ef5f14facb3de68cf8195c2f23e1454b2b74e92916110f185337f0000000000000000000000000000000000000000000000000000000000000000613616565b816121d8929395506132b5565b927f00000000000000000000000000000000000000000000000000000000000000009773ffffffffffffffffffffffffffffffffffffffff848a60248951809481937f70a082310000000000000000000000000000000000000000000000000000000083523088840152165afa9081156123005789916122d3575b5085811061229e5750507f7fc4727e062e336010f2c282598ef5f14facb3de68cf8195c2f23e1454b2b74e959697612294928592556111c8826009546132c2565b8594935f80612179565b90856044928851927f7ff860670000000000000000000000000000000000000000000000000000000084528301526024820152fd5b90508481813d83116122f9575b6122ea8183613226565b81010312610bbf57515f612253565b503d6122e0565b87513d8b823e3d90fd5b612315600c546132cf565b600c55612169565b50600c541515612164565b86856044928651927fcf4791810000000000000000000000000000000000000000000000000000000084528301526024820152fd5b8482517f1f2a2005000000000000000000000000000000000000000000000000000000008152fd5b50903461039f578160031936011261039f57602090517f55435dd261a4b9b3364963f7738a7a662ad9c84396d64be3365284bb7f0a50418152f35b50913461048457602060031936011261048457816020936001923581528085522001549051908152f35b509134610484578160031936011261048457612404613145565b916024356124106134b3565b6124186134ec565b801561267857600354808210612642575033855260176020528185209373ffffffffffffffffffffffffffffffffffffffff80821695865f52602052835f2060ff6003820154161561261a5761246c613522565b6124768333613876565b600654908181106125e5575050908160018993016124958682546132c2565b905560024291015560115416803b1561039f5784517f6c665a5500000000000000000000000000000000000000000000000000000000815273ffffffffffffffffffffffffffffffffffffffff8416878201908152602081018690523360408201529091839183919082908490829060600103925af180156125db576125c3575b50506125229033613876565b9260065480851061258e575050839082519081527f3fc499aeb0bb1cb58b6de8b02b3f86f4e7394e9690bef0110e32ced8a563104560203392a3519081527f728590e56aa44c8fa9db78ea21cb58f788846a3bc1d7f01329bf02ec301275a060203392a3600160025580f35b60449250848451927f7e7222b70000000000000000000000000000000000000000000000000000000084528301526024820152fd5b6125cc906131f6565b6125d757855f612516565b8580fd5b85513d84823e3d90fd5b60449188918851927f7e7222b70000000000000000000000000000000000000000000000000000000084528301526024820152fd5b8585517f33cbf2bc000000000000000000000000000000000000000000000000000000008152fd5b836044918451917f7c83fcf00000000000000000000000000000000000000000000000000000000083528201525f196024820152fd5b50517f1f2a2005000000000000000000000000000000000000000000000000000000008152fd5b509034610bbf5780600319360112610bbf576126b9613145565b92602435916126c66134b3565b6126ce6134ec565b73ffffffffffffffffffffffffffffffffffffffff94858116938415612a275780156129ff576003548082106129c95750612707613522565b6015549061271482613267565b601555835191602092838101913360601b83527fffffffffffffffffffffffffffffffffffffffff0000000000000000000000008660601b1660348301526048820152604881526127648161320a565b51902094855f5260188352845f20337fffffffffffffffffffffffff0000000000000000000000000000000000000000825416179055335f5260198352845f206127ae8154613267565b90556127106127bf600e54846132a2565b04936127d76127ce86856132b5565b9330338b613598565b8461296a575b335f5260178452855f20885f528452855f206127fa8482546132c2565b81556003810160017fffffffffffffffffffffffffffffffffffffffffffffffffffffffffffffff0082541617905560024291015561283e838b601154168a613759565b896011541691823b15610bbf576128aa925f928386938a51968795869485937f47e7ef2400000000000000000000000000000000000000000000000000000000855284016020909392919373ffffffffffffffffffffffffffffffffffffffff60408201951681520152565b03925af1801561296057612925575b506128ec7ff5681f9d0db1b911ac18ee83d515a1cf1051853a9eae418316a2fdf7dea427c595969798601154168861367d565b83519587337ff22f68830c194e4c414badc9dfa90deece18aead2f836e7c21a9b13600d09df38b80a485528401523392a3600160025580f35b7ff5681f9d0db1b911ac18ee83d515a1cf1051853a9eae418316a2fdf7dea427c595969750612953906131f6565b6128ec5f979695506128b9565b85513d5f823e3d90fd5b612979858b600554168a613616565b875f52600f8452855f2061298e8682546132c2565b9055875f52600f8452877f400d29b62956105bc2f5dd4fc459f1576c8f6acef73eb64f7578e9371cfb9c8885885f20548951908152a26127dd565b846044918551917f7c83fcf00000000000000000000000000000000000000000000000000000000083528201525f196024820152fd5b5050517f1f2a2005000000000000000000000000000000000000000000000000000000008152fd5b5050517fd92e233d000000000000000000000000000000000000000000000000000000008152fd5b8234610bbf575f600319360112610bbf57602090517fbf233dd2aafeb4d50879c4aa5c81e96d92f6e6945c906a58f9f2d1c1631b4b268152f35b8234610bbf576020600319360112610bbf5773ffffffffffffffffffffffffffffffffffffffff612ab8613145565b165f526016602052805f20906114ee825491600184015493600360028201549101549151948594859094939260609260808301968352602083015260408201520152565b828434610bbf57602080600319360112610bbf57612b18613145565b91612b21613400565b83519382850173ffffffffffffffffffffffffffffffffffffffff80951695868252848152612b4f816131ad565b519020917f13cc959b0000000000000000000000000000000000000000000000000000000092835f5260148552825f206001845191612b8d836131ad565b8054835201548682019080825215612c8d5751804210612c5e57505103612c37575060015f91601460055495887fffffffffffffffffffffffff000000000000000000000000000000000000000088161760055585855252822082815501557f756709f78b5e265dd9b23132e66f51535311131e8da3faf7c11677a7c451d04e5f80a2167f4ab5be82436d353e61ca18726e984e561f5c1cc7c6d38b29d2553c790434705a5f80a3005b90517f0364eed2000000000000000000000000000000000000000000000000000000008152fd5b836024918651917f96a5c631000000000000000000000000000000000000000000000000000000008352820152fd5b8385517fa3fef2f8000000000000000000000000000000000000000000000000000000008152fd5b505034610bbf5780600319360112610bbf5781359060243592612cd6613400565b60648311612dce5760648411612d995760a0918291600d548251916060835260608301527f73776170000000000000000000000000000000000000000000000000000000006080830152602082015284828201527fa959d4d2b0cc07c4515dc6e929a0f9c8ade49c6edb5133ba973de9b8ad745861938491a184600e549180519260608452600760608501527f6465706f7369740000000000000000000000000000000000000000000000000060808501526020840152820152a1600d55600e55005b8360449251917ff05eb60800000000000000000000000000000000000000000000000000000000835282015260646024820152fd5b8260449251917ff05eb60800000000000000000000000000000000000000000000000000000000835282015260646024820152fd5b8234610bbf576020600319360112610bbf5760209073ffffffffffffffffffffffffffffffffffffffff612e35613145565b165f5260198252805f20549051908152f35b8234610bbf575f600319360112610bbf5760209060ff6007541690519015158152f35b8234610bbf575f600319360112610bbf576020905173ffffffffffffffffffffffffffffffffffffffff7f0000000000000000000000000000000000000000000000000000000000000000168152f35b8234610bbf5780600319360112610bbf57612ed3613145565b612edb613168565b612ee3613400565b73ffffffffffffffffffffffffffffffffffffffff80921680612f8a575b50169081612f0b57005b60207f3cece36ac6216147f57b10bb30975f82b18b8b290a7925c322277e684afcce4a91612f44845f52601360205260405f2054151590565b15612f7b575b837fffffffffffffffffffffffff00000000000000000000000000000000000000006011541617601155515f8152a2005b612f8484613b77565b50612f4a565b612f9f815f52601360205260405f2054151590565b15612fff575b807fffffffffffffffffffffffff000000000000000000000000000000000000000060105416176010557f3cece36ac6216147f57b10bb30975f82b18b8b290a7925c322277e684afcce4a6020855160018152a283612f01565b61300881613b77565b50612fa5565b828434610bbf576020600319360112610bbf57357fffffffff000000000000000000000000000000000000000000000000000000008116809103610bbf576020917f7965db0b000000000000000000000000000000000000000000000000000000008214918215613083575b50519015158152f35b7f01ffc9a7000000000000000000000000000000000000000000000000000000001491508361307a565b505034610bbf576020600319360112610bbf578135916130cb613400565b670de0b6b3a764000080841061311257837f940a85d0905d7aaefea6a2c8c8b2bb3e7b2fabae53a267ba8d19ffce7ca7dc43846006548151908152836020820152a1600655005b8360449351927fa882fa240000000000000000000000000000000000000000000000000000000084528301526024820152fd5b6004359073ffffffffffffffffffffffffffffffffffffffff82168203610bbf57565b6024359073ffffffffffffffffffffffffffffffffffffffff82168203610bbf57565b34610bbf575f600319360112610bbf576020604051670de0b6b3a76400008152f35b6040810190811067ffffffffffffffff8211176131c957604052565b7f4e487b71000000000000000000000000000000000000000000000000000000005f52604160045260245ffd5b67ffffffffffffffff81116131c957604052565b6080810190811067ffffffffffffffff8211176131c957604052565b90601f7fffffffffffffffffffffffffffffffffffffffffffffffffffffffffffffffe0910116810190811067ffffffffffffffff8211176131c957604052565b5f1981146132755760010190565b7f4e487b71000000000000000000000000000000000000000000000000000000005f52601160045260245ffd5b8181029291811591840414171561327557565b9190820391821161327557565b9190820180921161327557565b8015613275575f190190565b73ffffffffffffffffffffffffffffffffffffffff165f52601660205260405f206040516133088161320a565b8154808252600183015491602081019283526002840154906060600360408301968488520154910152811561336c5750600a5461334491613c7c565b9051808211156133665761335d906133639351926132b5565b906132c2565b90565b50505190565b9250505090565b600b548042118015906133f6575b6133ef5761338f90426132b5565b6133a76133a1600854926004546132a2565b82613d01565b6009546a084595161401484a000000908103908111613275578082116133e7575b5080156133df5761335d61336392600a5492613d78565b5050600a5490565b90505f6133c8565b50600a5490565b5060085415613381565b335f9081527f7d7ffb7a348e1c6a02869081a26547b49160dd3df72d1d75a570eb9b698292ec60205260409020547fa49807205ce4d355092ef5a8a18f56e8913cf4a201fbe287825b095693c217759060ff161561345b5750565b604490604051907fe2517d3f0000000000000000000000000000000000000000000000000000000082523360048301526024820152fd5b805f525f60205260405f20335f5260205260ff60405f2054161561345b5750565b60028054146134c25760028055565b60046040517f3ee5aeb5000000000000000000000000000000000000000000000000000000008152fd5b60ff600154166134f857565b60046040517fd93c0665000000000000000000000000000000000000000000000000000000008152fd5b73ffffffffffffffffffffffffffffffffffffffff601154168015801561357c575b61354b5750565b602490604051907fca0f21b40000000000000000000000000000000000000000000000000000000082526004820152fd5b50613592815f52601360205260405f2054151590565b15613544565b9290604051927f23b872dd00000000000000000000000000000000000000000000000000000000602085015273ffffffffffffffffffffffffffffffffffffffff809216602485015216604483015260648201526064815260a081019181831067ffffffffffffffff8411176131c95761361492604052613be5565b565b6040517fa9059cbb00000000000000000000000000000000000000000000000000000000602082015273ffffffffffffffffffffffffffffffffffffffff92909216602483015260448083019390935291815261361491613678606483613226565b613be5565b60405190602082017f095ea7b3000000000000000000000000000000000000000000000000000000009384825260205f73ffffffffffffffffffffffffffffffffffffffff80931693846024880152816044880152604487526136df8761320a565b86519082875af1903d5f519083613738575b50505015613700575b50505050565b61372f936136789160405191602083015260248201525f6044820152604481526137298161320a565b82613be5565b5f8080806136fa565b9192509061374f575082163b15155b5f80806136f1565b6001915014613747565b6040519160205f8185016137e8866137bc7f095ea7b300000000000000000000000000000000000000000000000000000000998a855287602484016020909392919373ffffffffffffffffffffffffffffffffffffffff60408201951681520152565b037fffffffffffffffffffffffffffffffffffffffffffffffffffffffffffffffe08101885287613226565b85519082865af15f513d82613844575b5050156138055750505050565b61372f9373ffffffffffffffffffffffffffffffffffffffff613678926040519260208401521660248201525f6044820152604481526137298161320a565b90915061386e575073ffffffffffffffffffffffffffffffffffffffff82163b15155b5f806137f8565b600114613867565b9073ffffffffffffffffffffffffffffffffffffffff8060115416906044604094859383855196879586947f32221cf60000000000000000000000000000000000000000000000000000000086521660048501521660248301525afa90811561392f575f925f926138fa575b505080156138f35761336391613d78565b50505f1990565b8193508092503d8311613928575b6139128183613226565b81010312610bbf57602081519101515f806138e2565b503d613908565b82513d5f823e3d90fd5b600b5442118015906139c5575b6139bf57613956600b54426132b5565b6139686133a1600854926004546132a2565b6009546a084595161401484a000000908103908111613275578082116139b7575b5080613998575b505042600b55565b6139ad916139a591613d78565b600a546132c2565b600a555f80613990565b90505f613989565b42600b55565b5060085415613946565b90815f525f60205273ffffffffffffffffffffffffffffffffffffffff60405f20911690815f5260205260ff60405f205416155f14613a7157815f525f60205260405f20815f5260205260405f2060017fffffffffffffffffffffffffffffffffffffffffffffffffffffffffffffff0082541617905533917f2f8788117e7eff1d82e926ec794901d17c78024a50270940304540a733656f0d5f80a4600190565b50505f90565b90815f525f60205273ffffffffffffffffffffffffffffffffffffffff60405f20911690815f5260205260ff60405f2054165f14613a7157815f525f60205260405f20815f5260205260405f207fffffffffffffffffffffffffffffffffffffffffffffffffffffffffffffff00815416905533917ff6391f5c32d9c69d2a47ea670b442974b53935d1edc7fd64eb21e047a839171b5f80a4600190565b601254811015613b4a5760125f527fbb8a6a4669ba250d26cd7a459eca9d215f8307e33aebe50379bc5a3617ec344401905f90565b7f4e487b71000000000000000000000000000000000000000000000000000000005f52603260045260245ffd5b805f52601360205260405f2054155f14613be057601254680100000000000000008110156131c957613bc9613bb3826001859401601255613b15565b81939154905f199060031b92831b921b19161790565b9055601254905f52601360205260405f2055600190565b505f90565b905f602091828151910182855af115613c71575f513d613c68575073ffffffffffffffffffffffffffffffffffffffff81163b155b613c215750565b60249073ffffffffffffffffffffffffffffffffffffffff604051917f5274afe7000000000000000000000000000000000000000000000000000000008352166004820152fd5b60011415613c1a565b6040513d5f823e3d90fd5b905f1981830981830291828083109203918083039214613cf057670de0b6b3a76400009082821115613cde577faccb18165bd6fe31ae1cf318dc5b51eee0e1ba569b88cd74c1773b91fac10669940990828211900360ee1b910360121c170290565b634e487b715f5260116020526024601cfd5b5050670de0b6b3a764000091500490565b905f1981830981830291828083109203918083039214613d655769124bc0ddd92e560000009082821115613cde577f27b2ee96fa7279bd52efbc17ee1f3c0b5a37b4cdafd3d44f702b086e94a96f83940990828211900360e71b910360191c170290565b505069124bc0ddd92e5600000091500490565b670de0b6b3a7640000915f198383099280830292838086109503948086039514613e0c5784831115613df45790829109815f038216809204600280826003021880830282030280830282030280830282030280830282030280830282030280920290030293600183805f03040190848311900302920304170290565b82634e487b715f52156003026011186020526024601cfd5b505080925015613e1a570490565b7f4e487b71000000000000000000000000000000000000000000000000000000005f52601260045260245ffd5b5f818152601360205260409020548015613a71575f1990818101818111613275576012549083820191821161327557818103613ee5575b5050506012548015613eb857810190613e9682613b15565b909182549160031b1b191690556012555f5260136020525f6040812055600190565b7f4e487b71000000000000000000000000000000000000000000000000000000005f52603160045260245ffd5b613f03613ef4613bb393613b15565b90549060031b1c928392613b15565b90555f52601360205260405f20555f8080613e7e56fea164736f6c6343000818000a2f8788117e7eff1d82e926ec794901d17c78024a50270940304540a733656f0dad3228b676f7d3cd4284a5443f17f1962b36e491b30a40b2405849e597ba5fb5000000000000000000000000f39fd6e51aad88f6f4ce6ab8827279cfffb9226600000000000000000000000070997970c51812dc3a010c7d01b50e0d17dc79c8000000000000000000000000000000000000000000000000016345785d8a00000000000000000000000000003c44cdddb6a900fa2b585dd299e03d12fa4293bc",
        "nonce": "0x0",
        "chainId": "0x7a69"
      },
      "additionalContracts": [],
      "isFixedGasLimit": false
    },
    {
      "hash": "0x902052c40a7e067f3e368e20b914e3955a559285b27ddc7e23be0aa80d1718de",
      "transactionType": "CALL",
      "contractName": "DeFiHub",
      "contractAddress": "0x5fbdb2315678afecb367f032d93f642f64180aa3",
      "function": "setAdapters(address,address)",
      "arguments": [
        "0x90F79bf6EB2c4f870365E785982E1f101E93b906",
        "0x15d34AAf54267DB7D7c367839AAf71A00a2C6A65"
      ],
      "transaction": {
        "from": "0xf39fd6e51aad88f6f4ce6ab8827279cfffb92266",
        "to": "0x5fbdb2315678afecb367f032d93f642f64180aa3",
        "gas": "0x41988",
        "value": "0x0",
        "input": "0x02f0599600000000000000000000000090f79bf6eb2c4f870365e785982e1f101e93b90600000000000000000000000015d34aaf54267db7d7c367839aaf71a00a2c6a65",
        "nonce": "0x1",
        "chainId": "0x7a69"
      },
      "additionalContracts": [],
      "isFixedGasLimit": false
    },
    {
      "hash": "0x7b34e22bb16a1ede135ea8f7c9e146288a35bddb20620fe5c15ab20658e27b08",
      "transactionType": "CALL",
      "contractName": "DeFiHub",
      "contractAddress": "0x5fbdb2315678afecb367f032d93f642f64180aa3",
      "function": "grantRole(bytes32,address)",
      "arguments": [
        "0xa49807205ce4d355092ef5a8a18f56e8913cf4a201fbe287825b095693c21775",
        "0x9965507d1a55bcc2695c58ba16Fb37D819b0A4dF"
      ],
      "transaction": {
        "from": "0xf39fd6e51aad88f6f4ce6ab8827279cfffb92266",
        "to": "0x5fbdb2315678afecb367f032d93f642f64180aa3",
        "gas": "0x11517",
        "value": "0x0",
        "input": "0x2f2ff15da49807205ce4d355092ef5a8a18f56e8913cf4a201fbe287825b095693c217750000000000000000000000009965507d1a55bcc2695c58ba16fb37d819b0a4df",
        "nonce": "0x2",
        "chainId": "0x7a69"
      },
      "additionalContracts": [],
      "isFixedGasLimit": false
    },
    {
      "hash": "0xcbccc72f30509f1e40fae47e9b918b4869b55db2d52fe55b23cc1ec978d0a480",
      "transactionType": "CALL",
      "contractName": "DeFiHub",
      "contractAddress": "0x5fbdb2315678afecb367f032d93f642f64180aa3",
      "function": "grantRole(bytes32,address)",
      "arguments": [
        "0xbf233dd2aafeb4d50879c4aa5c81e96d92f6e6945c906a58f9f2d1c1631b4b26",
        "0x976EA74026E726554dB657fA54763abd0C3a0aa9"
      ],
      "transaction": {
        "from": "0xf39fd6e51aad88f6f4ce6ab8827279cfffb92266",
        "to": "0x5fbdb2315678afecb367f032d93f642f64180aa3",
        "gas": "0x11517",
        "value": "0x0",
        "input": "0x2f2ff15dbf233dd2aafeb4d50879c4aa5c81e96d92f6e6945c906a58f9f2d1c1631b4b26000000000000000000000000976ea74026e726554db657fa54763abd0c3a0aa9",
        "nonce": "0x3",
        "chainId": "0x7a69"
      },
      "additionalContracts": [],
      "isFixedGasLimit": false
    },
    {
      "hash": "0x4913274aee4748af0047ee7c436d8bcee82a8953df06825e0ea41ae9e95fa292",
      "transactionType": "CALL",
      "contractName": "DeFiHub",
      "contractAddress": "0x5fbdb2315678afecb367f032d93f642f64180aa3",
      "function": "grantRole(bytes32,address)",
      "arguments": [
        "0xbf233dd2aafeb4d50879c4aa5c81e96d92f6e6945c906a58f9f2d1c1631b4b26",
        "0x9965507d1a55bcc2695c58ba16Fb37D819b0A4dF"
      ],
      "transaction": {
        "from": "0xf39fd6e51aad88f6f4ce6ab8827279cfffb92266",
        "to": "0x5fbdb2315678afecb367f032d93f642f64180aa3",
        "gas": "0x11517",
        "value": "0x0",
        "input": "0x2f2ff15dbf233dd2aafeb4d50879c4aa5c81e96d92f6e6945c906a58f9f2d1c1631b4b260000000000000000000000009965507d1a55bcc2695c58ba16fb37d819b0a4df",
        "nonce": "0x4",
        "chainId": "0x7a69"
      },
      "additionalContracts": [],
      "isFixedGasLimit": false
    },
    {
      "hash": "0xfaa6b0cc1304cdc5a4a0a77fde32f003561e78e8012bfc0427a690422df3b3b3",
      "transactionType": "CALL",
      "contractName": "DeFiHub",
      "contractAddress": "0x5fbdb2315678afecb367f032d93f642f64180aa3",
      "function": "grantRole(bytes32,address)",
      "arguments": [
        "0x55435dd261a4b9b3364963f7738a7a662ad9c84396d64be3365284bb7f0a5041",
        "0x9965507d1a55bcc2695c58ba16Fb37D819b0A4dF"
      ],
      "transaction": {
        "from": "0xf39fd6e51aad88f6f4ce6ab8827279cfffb92266",
        "to": "0x5fbdb2315678afecb367f032d93f642f64180aa3",
        "gas": "0x11517",
        "value": "0x0",
        "input": "0x2f2ff15d55435dd261a4b9b3364963f7738a7a662ad9c84396d64be3365284bb7f0a50410000000000000000000000009965507d1a55bcc2695c58ba16fb37d819b0a4df",
        "nonce": "0x5",
        "chainId": "0x7a69"
      },
      "additionalContracts": [],
      "isFixedGasLimit": false
    },
    {
      "hash": "0x6d6169fc206d6b848599ebeda276c3efb84248bf340677024506a8b4781538d3",
      "transactionType": "CALL",
      "contractName": "DeFiHub",
      "contractAddress": "0x5fbdb2315678afecb367f032d93f642f64180aa3",
      "function": "grantRole(bytes32,address)",
      "arguments": [
        "0x0000000000000000000000000000000000000000000000000000000000000000",
        "0x9965507d1a55bcc2695c58ba16Fb37D819b0A4dF"
      ],
      "transaction": {
        "from": "0xf39fd6e51aad88f6f4ce6ab8827279cfffb92266",
        "to": "0x5fbdb2315678afecb367f032d93f642f64180aa3",
        "gas": "0x11305",
        "value": "0x0",
        "input": "0x2f2ff15d00000000000000000000000000000000000000000000000000000000000000000000000000000000000000009965507d1a55bcc2695c58ba16fb37d819b0a4df",
        "nonce": "0x6",
        "chainId": "0x7a69"
      },
      "additionalContracts": [],
      "isFixedGasLimit": false
    },
    {
      "hash": "0x8d4abeeeac290d9c3e043cb614d128fb76c9e07c504fd4d98b78327c9c76f13d",
      "transactionType": "CALL",
      "contractName": "DeFiHub",
      "contractAddress": "0x5fbdb2315678afecb367f032d93f642f64180aa3",
      "function": "revokeRole(bytes32,address)",
      "arguments": [
        "0xa49807205ce4d355092ef5a8a18f56e8913cf4a201fbe287825b095693c21775",
        "0xf39Fd6e51aad88F6F4ce6aB8827279cffFb92266"
      ],
      "transaction": {
        "from": "0xf39fd6e51aad88f6f4ce6ab8827279cfffb92266",
        "to": "0x5fbdb2315678afecb367f032d93f642f64180aa3",
        "gas": "0xa41c",
        "value": "0x0",
        "input": "0xd547741fa49807205ce4d355092ef5a8a18f56e8913cf4a201fbe287825b095693c21775000000000000000000000000f39fd6e51aad88f6f4ce6ab8827279cfffb92266",
        "nonce": "0x7",
        "chainId": "0x7a69"
      },
      "additionalContracts": [],
      "isFixedGasLimit": false
    },
    {
      "hash": "0x16d0165894d8f26a4d1f393ebd5e568d9b16c483308f25bc893fc789ab1fe7be",
      "transactionType": "CALL",
      "contractName": "DeFiHub",
      "contractAddress": "0x5fbdb2315678afecb367f032d93f642f64180aa3",
      "function": "revokeRole(bytes32,address)",
      "arguments": [
        "0xbf233dd2aafeb4d50879c4aa5c81e96d92f6e6945c906a58f9f2d1c1631b4b26",
        "0xf39Fd6e51aad88F6F4ce6aB8827279cffFb92266"
      ],
      "transaction": {
        "from": "0xf39fd6e51aad88f6f4ce6ab8827279cfffb92266",
        "to": "0x5fbdb2315678afecb367f032d93f642f64180aa3",
        "gas": "0xa41c",
        "value": "0x0",
        "input": "0xd547741fbf233dd2aafeb4d50879c4aa5c81e96d92f6e6945c906a58f9f2d1c1631b4b26000000000000000000000000f39fd6e51aad88f6f4ce6ab8827279cfffb92266",
        "nonce": "0x8",
        "chainId": "0x7a69"
      },
      "additionalContracts": [],
      "isFixedGasLimit": false
    },
    {
      "hash": "0xfe14a048f9acb419dcc6d20bc5e5843c0374b75daf2d7c08170091ced49af7a4",
      "transactionType": "CALL",
      "contractName": "DeFiHub",
      "contractAddress": "0x5fbdb2315678afecb367f032d93f642f64180aa3",
      "function": "revokeRole(bytes32,address)",
      "arguments": [
        "0x55435dd261a4b9b3364963f7738a7a662ad9c84396d64be3365284bb7f0a5041",
        "0xf39Fd6e51aad88F6F4ce6aB8827279cffFb92266"
      ],
      "transaction": {
        "from": "0xf39fd6e51aad88f6f4ce6ab8827279cfffb92266",
        "to": "0x5fbdb2315678afecb367f032d93f642f64180aa3",
        "gas": "0xa41c",
        "value": "0x0",
        "input": "0xd547741f55435dd261a4b9b3364963f7738a7a662ad9c84396d64be3365284bb7f0a5041000000000000000000000000f39fd6e51aad88f6f4ce6ab8827279cfffb92266",
        "nonce": "0x9",
        "chainId": "0x7a69"
      },
      "additionalContracts": [],
      "isFixedGasLimit": false
    },
    {
      "hash": "0x58def66473ed969533dbcc46721cac4c57c8d30776393f77870612e9ddaab5c4",
      "transactionType": "CALL",
      "contractName": "DeFiHub",
      "contractAddress": "0x5fbdb2315678afecb367f032d93f642f64180aa3",
      "function": "revokeRole(bytes32,address)",
      "arguments": [
        "0x0000000000000000000000000000000000000000000000000000000000000000",
        "0xf39Fd6e51aad88F6F4ce6aB8827279cffFb92266"
      ],
      "transaction": {
        "from": "0xf39fd6e51aad88f6f4ce6ab8827279cfffb92266",
        "to": "0x5fbdb2315678afecb367f032d93f642f64180aa3",
        "gas": "0x973f",
        "value": "0x0",
        "input": "0xd547741f0000000000000000000000000000000000000000000000000000000000000000000000000000000000000000f39fd6e51aad88f6f4ce6ab8827279cfffb92266",
        "nonce": "0xa",
        "chainId": "0x7a69"
      },
      "additionalContracts": [],
      "isFixedGasLimit": false
    }
  ],
  "receipts": [
    {
      "status": "0x1",
      "cumulativeGasUsed": "0x3a2c84",
      "logs": [
        {
          "address": "0x5fbdb2315678afecb367f032d93f642f64180aa3",
          "topics": [
            "0x2f8788117e7eff1d82e926ec794901d17c78024a50270940304540a733656f0d",
            "0x0000000000000000000000000000000000000000000000000000000000000000",
            "0x000000000000000000000000f39fd6e51aad88f6f4ce6ab8827279cfffb92266",
            "0x000000000000000000000000f39fd6e51aad88f6f4ce6ab8827279cfffb92266"
          ],
          "data": "0x",
          "blockHash": "0x4f7a74dbfa3ae749d9bfcd3f139b3ad6ea9619a529a8379230098e56284eca75",
          "blockNumber": "0x1",
          "blockTimestamp": "0x69d31079",
          "transactionHash": "0xfd22e54e2fc92377b4033b916f588639bf06f45ad6553d244b0891643176cc4f",
          "transactionIndex": "0x0",
          "logIndex": "0x0",
          "removed": false
        },
        {
          "address": "0x5fbdb2315678afecb367f032d93f642f64180aa3",
          "topics": [
            "0x2f8788117e7eff1d82e926ec794901d17c78024a50270940304540a733656f0d",
            "0xa49807205ce4d355092ef5a8a18f56e8913cf4a201fbe287825b095693c21775",
            "0x000000000000000000000000f39fd6e51aad88f6f4ce6ab8827279cfffb92266",
            "0x000000000000000000000000f39fd6e51aad88f6f4ce6ab8827279cfffb92266"
          ],
          "data": "0x",
          "blockHash": "0x4f7a74dbfa3ae749d9bfcd3f139b3ad6ea9619a529a8379230098e56284eca75",
          "blockNumber": "0x1",
          "blockTimestamp": "0x69d31079",
          "transactionHash": "0xfd22e54e2fc92377b4033b916f588639bf06f45ad6553d244b0891643176cc4f",
          "transactionIndex": "0x0",
          "logIndex": "0x1",
          "removed": false
        },
        {
          "address": "0x5fbdb2315678afecb367f032d93f642f64180aa3",
          "topics": [
            "0x2f8788117e7eff1d82e926ec794901d17c78024a50270940304540a733656f0d",
            "0xbf233dd2aafeb4d50879c4aa5c81e96d92f6e6945c906a58f9f2d1c1631b4b26",
            "0x000000000000000000000000f39fd6e51aad88f6f4ce6ab8827279cfffb92266",
            "0x000000000000000000000000f39fd6e51aad88f6f4ce6ab8827279cfffb92266"
          ],
          "data": "0x",
          "blockHash": "0x4f7a74dbfa3ae749d9bfcd3f139b3ad6ea9619a529a8379230098e56284eca75",
          "blockNumber": "0x1",
          "blockTimestamp": "0x69d31079",
          "transactionHash": "0xfd22e54e2fc92377b4033b916f588639bf06f45ad6553d244b0891643176cc4f",
          "transactionIndex": "0x0",
          "logIndex": "0x2",
          "removed": false
        },
        {
          "address": "0x5fbdb2315678afecb367f032d93f642f64180aa3",
          "topics": [
            "0x2f8788117e7eff1d82e926ec794901d17c78024a50270940304540a733656f0d",
            "0x55435dd261a4b9b3364963f7738a7a662ad9c84396d64be3365284bb7f0a5041",
            "0x000000000000000000000000f39fd6e51aad88f6f4ce6ab8827279cfffb92266",
            "0x000000000000000000000000f39fd6e51aad88f6f4ce6ab8827279cfffb92266"
          ],
          "data": "0x",
          "blockHash": "0x4f7a74dbfa3ae749d9bfcd3f139b3ad6ea9619a529a8379230098e56284eca75",
          "blockNumber": "0x1",
          "blockTimestamp": "0x69d31079",
          "transactionHash": "0xfd22e54e2fc92377b4033b916f588639bf06f45ad6553d244b0891643176cc4f",
          "transactionIndex": "0x0",
          "logIndex": "0x3",
          "removed": false
        },
        {
          "address": "0x5fbdb2315678afecb367f032d93f642f64180aa3",
          "topics": [
            "0xe0d3fddb138b12d11d84f63fbd79dc4d4b25cf023bc9368d5cfd6e8277c91123",
            "0x000000000000000000000000f39fd6e51aad88f6f4ce6ab8827279cfffb92266",
            "0x00000000000000000000000070997970c51812dc3a010c7d01b50e0d17dc79c8"
          ],
          "data": "0x0000000000000000000000003c44cdddb6a900fa2b585dd299e03d12fa4293bc",
          "blockHash": "0x4f7a74dbfa3ae749d9bfcd3f139b3ad6ea9619a529a8379230098e56284eca75",
          "blockNumber": "0x1",
          "blockTimestamp": "0x69d31079",
          "transactionHash": "0xfd22e54e2fc92377b4033b916f588639bf06f45ad6553d244b0891643176cc4f",
          "transactionIndex": "0x0",
          "logIndex": "0x4",
          "removed": false
        }
      ],
      "logsBloom": "0x00000004000000000002000002000000000000000000000000000000020000000000000000000000000000000040000000000000000000000000000000000000000000000000000000000000000000000000000020000000000000000010000000000840020000000000008100000800000000000000000800000000000000000000000000000000000000000000004000000000000000000000000200004000000000000000000000000000000000000000000008000000001000000000000000000040020000200000000000000000000000002000000100000000000020000000000000000000000000000000000001000000000000000000000000040000",
      "type": "0x2",
      "transactionHash": "0xfd22e54e2fc92377b4033b916f588639bf06f45ad6553d244b0891643176cc4f",
      "transactionIndex": "0x0",
      "blockHash": "0x4f7a74dbfa3ae749d9bfcd3f139b3ad6ea9619a529a8379230098e56284eca75",
      "blockNumber": "0x1",
      "gasUsed": "0x3a2c84",
      "effectiveGasPrice": "0x3b9aca01",
      "blobGasPrice": "0x1",
      "from": "0xf39fd6e51aad88f6f4ce6ab8827279cfffb92266",
      "to": null,
      "contractAddress": "0x5fbdb2315678afecb367f032d93f642f64180aa3"
    },
    {
      "status": "0x1",
      "cumulativeGasUsed": "0x3cfa25",
      "logs": [
        {
          "address": "0x5fbdb2315678afecb367f032d93f642f64180aa3",
          "topics": [
            "0x3cece36ac6216147f57b10bb30975f82b18b8b290a7925c322277e684afcce4a",
            "0x00000000000000000000000090f79bf6eb2c4f870365e785982e1f101e93b906"
          ],
          "data": "0x0000000000000000000000000000000000000000000000000000000000000001",
          "blockHash": "0x4f7a74dbfa3ae749d9bfcd3f139b3ad6ea9619a529a8379230098e56284eca75",
          "blockNumber": "0x1",
          "blockTimestamp": "0x69d31079",
          "transactionHash": "0x902052c40a7e067f3e368e20b914e3955a559285b27ddc7e23be0aa80d1718de",
          "transactionIndex": "0x1",
          "logIndex": "0x5",
          "removed": false
        },
        {
          "address": "0x5fbdb2315678afecb367f032d93f642f64180aa3",
          "topics": [
            "0x3cece36ac6216147f57b10bb30975f82b18b8b290a7925c322277e684afcce4a",
            "0x00000000000000000000000015d34aaf54267db7d7c367839aaf71a00a2c6a65"
          ],
          "data": "0x0000000000000000000000000000000000000000000000000000000000000000",
          "blockHash": "0x4f7a74dbfa3ae749d9bfcd3f139b3ad6ea9619a529a8379230098e56284eca75",
          "blockNumber": "0x1",
          "blockTimestamp": "0x69d31079",
          "transactionHash": "0x902052c40a7e067f3e368e20b914e3955a559285b27ddc7e23be0aa80d1718de",
          "transactionIndex": "0x1",
          "logIndex": "0x6",
          "removed": false
        }
      ],
      "logsBloom": "0x00000000040000000000000000000000000000000000000000000000000000000000000000000000000000000000000000010000000000000000000000000000000000000000000000000000000000000000000000000000000000000000000000000040000000000000000000000000000000000000000000000000000000000000000000000000000000000000000000000000000000000400000300200000000000000000000000000000000000000000000000000000000000000000000000000040000000000000000000000000400000000000000000000000000004000000000000004000000010000000000000000000000000000000000000000000",
      "type": "0x2",
      "transactionHash": "0x902052c40a7e067f3e368e20b914e3955a559285b27ddc7e23be0aa80d1718de",
      "transactionIndex": "0x1",
      "blockHash": "0x4f7a74dbfa3ae749d9bfcd3f139b3ad6ea9619a529a8379230098e56284eca75",
      "blockNumber": "0x1",
      "gasUsed": "0x2cda1",
      "effectiveGasPrice": "0x3b9aca01",
      "blobGasPrice": "0x1",
      "from": "0xf39fd6e51aad88f6f4ce6ab8827279cfffb92266",
      "to": "0x5fbdb2315678afecb367f032d93f642f64180aa3",
      "contractAddress": null
    },
    {
      "status": "0x1",
      "cumulativeGasUsed": "0xc89d",
      "logs": [
        {
          "address": "0x5fbdb2315678afecb367f032d93f642f64180aa3",
          "topics": [
            "0x2f8788117e7eff1d82e926ec794901d17c78024a50270940304540a733656f0d",
            "0xa49807205ce4d355092ef5a8a18f56e8913cf4a201fbe287825b095693c21775",
            "0x0000000000000000000000009965507d1a55bcc2695c58ba16fb37d819b0a4df",
            "0x000000000000000000000000f39fd6e51aad88f6f4ce6ab8827279cfffb92266"
          ],
          "data": "0x",
          "blockHash": "0x56414b701d2ca4c224a23971b923c87bbc4667baf1a662bed107251a92159b6c",
          "blockNumber": "0x2",
          "blockTimestamp": "0x69d31079",
          "transactionHash": "0x7b34e22bb16a1ede135ea8f7c9e146288a35bddb20620fe5c15ab20658e27b08",
          "transactionIndex": "0x0",
          "logIndex": "0x0",
          "removed": false
        }
      ],
      "logsBloom": "0x00000004000000000000000000000000000000000000000000000000000000000000000000000000000000000000000000000000000000000000000000000000000000000000000000000000000000000000000020000000000000000000000000000040000000000000000100000000000000000000080800000000000000000000000000000000000000000000004000000000000000000000010200000000000000000000000000000000000000040000000000000000001000000000000000000040000000200000000000000000000000002000000100000000000000000000000000000000000000000000000000000000000000000000000000000000",
      "type": "0x2",
      "transactionHash": "0x7b34e22bb16a1ede135ea8f7c9e146288a35bddb20620fe5c15ab20658e27b08",
      "transactionIndex": "0x0",
      "blockHash": "0x56414b701d2ca4c224a23971b923c87bbc4667baf1a662bed107251a92159b6c",
      "blockNumber": "0x2",
      "gasUsed": "0xc89d",
      "effectiveGasPrice": "0x3623954b",
      "blobGasPrice": "0x1",
      "from": "0xf39fd6e51aad88f6f4ce6ab8827279cfffb92266",
      "to": "0x5fbdb2315678afecb367f032d93f642f64180aa3",
      "contractAddress": null
    },
    {
      "status": "0x1",
      "cumulativeGasUsed": "0x1913a",
      "logs": [
        {
          "address": "0x5fbdb2315678afecb367f032d93f642f64180aa3",
          "topics": [
            "0x2f8788117e7eff1d82e926ec794901d17c78024a50270940304540a733656f0d",
            "0xbf233dd2aafeb4d50879c4aa5c81e96d92f6e6945c906a58f9f2d1c1631b4b26",
            "0x000000000000000000000000976ea74026e726554db657fa54763abd0c3a0aa9",
            "0x000000000000000000000000f39fd6e51aad88f6f4ce6ab8827279cfffb92266"
          ],
          "data": "0x",
          "blockHash": "0x56414b701d2ca4c224a23971b923c87bbc4667baf1a662bed107251a92159b6c",
          "blockNumber": "0x2",
          "blockTimestamp": "0x69d31079",
          "transactionHash": "0xcbccc72f30509f1e40fae47e9b918b4869b55db2d52fe55b23cc1ec978d0a480",
          "transactionIndex": "0x1",
          "logIndex": "0x1",
          "removed": false
        }
      ],
      "logsBloom": "0x00000004000000000000000000000000000000040200000000000000000000000000000000000000000000000040000000000000000000000000000000000000000000000000000000000000000000000000000000000000080000000010000000000040000000000000008100000000000000000000000000000000000000000000000000000000000000000000000000000000000000000000000200000000000000000000000000000000000000000000000000000000001000000000000000000040000000200000000000000000000000002000000100000000000000000000000000000000000000000000000000000000000000000000000000000000",
      "type": "0x2",
      "transactionHash": "0xcbccc72f30509f1e40fae47e9b918b4869b55db2d52fe55b23cc1ec978d0a480",
      "transactionIndex": "0x1",
      "blockHash": "0x56414b701d2ca4c224a23971b923c87bbc4667baf1a662bed107251a92159b6c",
      "blockNumber": "0x2",
      "gasUsed": "0xc89d",
      "effectiveGasPrice": "0x3623954b",
      "blobGasPrice": "0x1",
      "from": "0xf39fd6e51aad88f6f4ce6ab8827279cfffb92266",
      "to": "0x5fbdb2315678afecb367f032d93f642f64180aa3",
      "contractAddress": null
    },
    {
      "status": "0x1",
      "cumulativeGasUsed": "0x259d7",
      "logs": [
        {
          "address": "0x5fbdb2315678afecb367f032d93f642f64180aa3",
          "topics": [
            "0x2f8788117e7eff1d82e926ec794901d17c78024a50270940304540a733656f0d",
            "0xbf233dd2aafeb4d50879c4aa5c81e96d92f6e6945c906a58f9f2d1c1631b4b26",
            "0x0000000000000000000000009965507d1a55bcc2695c58ba16fb37d819b0a4df",
            "0x000000000000000000000000f39fd6e51aad88f6f4ce6ab8827279cfffb92266"
          ],
          "data": "0x",
          "blockHash": "0x56414b701d2ca4c224a23971b923c87bbc4667baf1a662bed107251a92159b6c",
          "blockNumber": "0x2",
          "blockTimestamp": "0x69d31079",
          "transactionHash": "0x4913274aee4748af0047ee7c436d8bcee82a8953df06825e0ea41ae9e95fa292",
          "transactionIndex": "0x2",
          "logIndex": "0x2",
          "removed": false
        }
      ],
      "logsBloom": "0x00000004000000000000000000000000000000000000000000000000000000000000000000000000000000000040000000000000000000000000000000000000000000000000000000000000000000000000000000000000000000000010000000000040000000000000008100000000000000000000080000000000000000000000000000000000000000000000000000000000000000000000010200000000000000000000000000000000000000040000000000000000001000000000000000000040000000200000000000000000000000002000000100000000000000000000000000000000000000000000000000000000000000000000000000000000",
      "type": "0x2",
      "transactionHash": "0x4913274aee4748af0047ee7c436d8bcee82a8953df06825e0ea41ae9e95fa292",
      "transactionIndex": "0x2",
      "blockHash": "0x56414b701d2ca4c224a23971b923c87bbc4667baf1a662bed107251a92159b6c",
      "blockNumber": "0x2",
      "gasUsed": "0xc89d",
      "effectiveGasPrice": "0x3623954b",
      "blobGasPrice": "0x1",
      "from": "0xf39fd6e51aad88f6f4ce6ab8827279cfffb92266",
      "to": "0x5fbdb2315678afecb367f032d93f642f64180aa3",
      "contractAddress": null
    },
    {
      "status": "0x1",
      "cumulativeGasUsed": "0x32274",
      "logs": [
        {
          "address": "0x5fbdb2315678afecb367f032d93f642f64180aa3",
          "topics": [
            "0x2f8788117e7eff1d82e926ec794901d17c78024a50270940304540a733656f0d",
            "0x55435dd261a4b9b3364963f7738a7a662ad9c84396d64be3365284bb7f0a5041",
            "0x0000000000000000000000009965507d1a55bcc2695c58ba16fb37d819b0a4df",
            "0x000000000000000000000000f39fd6e51aad88f6f4ce6ab8827279cfffb92266"
          ],
          "data": "0x",
          "blockHash": "0x56414b701d2ca4c224a23971b923c87bbc4667baf1a662bed107251a92159b6c",
          "blockNumber": "0x2",
          "blockTimestamp": "0x69d31079",
          "transactionHash": "0xfaa6b0cc1304cdc5a4a0a77fde32f003561e78e8012bfc0427a690422df3b3b3",
          "transactionIndex": "0x3",
          "logIndex": "0x3",
          "removed": false
        }
      ],
      "logsBloom": "0x00000004000000000000000000000000000000000000000000000000000000000000000000000000000000000000000000000000000000000000000000000000000000000000000000000000000000000000000000000000000000000000000000000040000000000000000100000000000000000000080000000000000000000000000000000000000000000000000000000000000000000000010200004000000000000000000000000000000000040000000000000000001000000000000000000040020000200000000000000000000000002000000100000000000000000000000000000000000000000000000000000000000000000000000000040000",
      "type": "0x2",
      "transactionHash": "0xfaa6b0cc1304cdc5a4a0a77fde32f003561e78e8012bfc0427a690422df3b3b3",
      "transactionIndex": "0x3",
      "blockHash": "0x56414b701d2ca4c224a23971b923c87bbc4667baf1a662bed107251a92159b6c",
      "blockNumber": "0x2",
      "gasUsed": "0xc89d",
      "effectiveGasPrice": "0x3623954b",
      "blobGasPrice": "0x1",
      "from": "0xf39fd6e51aad88f6f4ce6ab8827279cfffb92266",
      "to": "0x5fbdb2315678afecb367f032d93f642f64180aa3",
      "contractAddress": null
    },
    {
      "status": "0x1",
      "cumulativeGasUsed": "0x3e991",
      "logs": [
        {
          "address": "0x5fbdb2315678afecb367f032d93f642f64180aa3",
          "topics": [
            "0x2f8788117e7eff1d82e926ec794901d17c78024a50270940304540a733656f0d",
            "0x0000000000000000000000000000000000000000000000000000000000000000",
            "0x0000000000000000000000009965507d1a55bcc2695c58ba16fb37d819b0a4df",
            "0x000000000000000000000000f39fd6e51aad88f6f4ce6ab8827279cfffb92266"
          ],
          "data": "0x",
          "blockHash": "0x56414b701d2ca4c224a23971b923c87bbc4667baf1a662bed107251a92159b6c",
          "blockNumber": "0x2",
          "blockTimestamp": "0x69d31079",
          "transactionHash": "0x6d6169fc206d6b848599ebeda276c3efb84248bf340677024506a8b4781538d3",
          "transactionIndex": "0x4",
          "logIndex": "0x4",
          "removed": false
        }
      ],
      "logsBloom": "0x00000004000000000000000000000000000000000000000000000000000000000000000000000000000000000000000000000000000000000000000000000000000000000000000000000000000000000000000000000000000000000000000000000040020000000000000100000800000000000000080000000000000000000000000000000000000000000000000000000000000000000000010200000000000000000000000000000000000000040000000000000000001000000000000000000040000000200000000000000000000000002000000100000000000020000000000000000000000000000000000000000000000000000000000000000000",
      "type": "0x2",
      "transactionHash": "0x6d6169fc206d6b848599ebeda276c3efb84248bf340677024506a8b4781538d3",
      "transactionIndex": "0x4",
      "blockHash": "0x56414b701d2ca4c224a23971b923c87bbc4667baf1a662bed107251a92159b6c",
      "blockNumber": "0x2",
      "gasUsed": "0xc71d",
      "effectiveGasPrice": "0x3623954b",
      "blobGasPrice": "0x1",
      "from": "0xf39fd6e51aad88f6f4ce6ab8827279cfffb92266",
      "to": "0x5fbdb2315678afecb367f032d93f642f64180aa3",
      "contractAddress": null
    },
    {
      "status": "0x1",
      "cumulativeGasUsed": "0x76d0",
      "logs": [
        {
          "address": "0x5fbdb2315678afecb367f032d93f642f64180aa3",
          "topics": [
            "0xf6391f5c32d9c69d2a47ea670b442974b53935d1edc7fd64eb21e047a839171b",
            "0xa49807205ce4d355092ef5a8a18f56e8913cf4a201fbe287825b095693c21775",
            "0x000000000000000000000000f39fd6e51aad88f6f4ce6ab8827279cfffb92266",
            "0x000000000000000000000000f39fd6e51aad88f6f4ce6ab8827279cfffb92266"
          ],
          "data": "0x",
          "blockHash": "0x7bd54db16853cb7b6c0aca445bd0e2da5cb4272dd1dae48228d197a66a3f2408",
          "blockNumber": "0x3",
          "blockTimestamp": "0x69d3107a",
          "transactionHash": "0x8d4abeeeac290d9c3e043cb614d128fb76c9e07c504fd4d98b78327c9c76f13d",
          "transactionIndex": "0x0",
          "logIndex": "0x0",
          "removed": false
        }
      ],
      "logsBloom": "0x00000000000000000000000000000000000000000000000000000000000000000000000000000000000000000000000000200000000000000000000000000000000000000000000000000000000000000000000020000000000000000000000040000040000000000000000100000000000000000000000800000000000000000000000040000000000000000000004000000000000000000000000200000000000000000000000000000000000000000000000000000000000000000000000000000040000000200000000000000000000000002000000000000000000000000000000000000000000000000000000000000000000000000000000000000000",
      "type": "0x2",
      "transactionHash": "0x8d4abeeeac290d9c3e043cb614d128fb76c9e07c504fd4d98b78327c9c76f13d",
      "transactionIndex": "0x0",
      "blockHash": "0x7bd54db16853cb7b6c0aca445bd0e2da5cb4272dd1dae48228d197a66a3f2408",
      "blockNumber": "0x3",
      "gasUsed": "0x76d0",
      "effectiveGasPrice": "0x2f7cbfac",
      "blobGasPrice": "0x1",
      "from": "0xf39fd6e51aad88f6f4ce6ab8827279cfffb92266",
      "to": "0x5fbdb2315678afecb367f032d93f642f64180aa3",
      "contractAddress": null
    },
    {
      "status": "0x1",
      "cumulativeGasUsed": "0x76d0",
      "logs": [
        {
          "address": "0x5fbdb2315678afecb367f032d93f642f64180aa3",
          "topics": [
            "0xf6391f5c32d9c69d2a47ea670b442974b53935d1edc7fd64eb21e047a839171b",
            "0xbf233dd2aafeb4d50879c4aa5c81e96d92f6e6945c906a58f9f2d1c1631b4b26",
            "0x000000000000000000000000f39fd6e51aad88f6f4ce6ab8827279cfffb92266",
            "0x000000000000000000000000f39fd6e51aad88f6f4ce6ab8827279cfffb92266"
          ],
          "data": "0x",
          "blockHash": "0x748beed8e344b76b445ab570e0d90532c9ba791351eac419831ac38533a9ab8d",
          "blockNumber": "0x4",
          "blockTimestamp": "0x69d3107a",
          "transactionHash": "0x16d0165894d8f26a4d1f393ebd5e568d9b16c483308f25bc893fc789ab1fe7be",
          "transactionIndex": "0x0",
          "logIndex": "0x0",
          "removed": false
        }
      ],
      "logsBloom": "0x00000000000000000000000000000000000000000000000000000000000000000000000000000000000000000040000000200000000000000000000000000000000000000000000000000000000000000000000000000000000000000010000040000040000000000000008100000000000000000000000000000000000000000000000040000000000000000000000000000000000000000000000200000000000000000000000000000000000000000000000000000000000000000000000000000040000000200000000000000000000000002000000000000000000000000000000000000000000000000000000000000000000000000000000000000000",
      "type": "0x2",
      "transactionHash": "0x16d0165894d8f26a4d1f393ebd5e568d9b16c483308f25bc893fc789ab1fe7be",
      "transactionIndex": "0x0",
      "blockHash": "0x748beed8e344b76b445ab570e0d90532c9ba791351eac419831ac38533a9ab8d",
      "blockNumber": "0x4",
      "gasUsed": "0x76d0",
      "effectiveGasPrice": "0x29903c89",
      "blobGasPrice": "0x1",
      "from": "0xf39fd6e51aad88f6f4ce6ab8827279cfffb92266",
      "to": "0x5fbdb2315678afecb367f032d93f642f64180aa3",
      "contractAddress": null
    },
    {
      "status": "0x1",
      "cumulativeGasUsed": "0xeda0",
      "logs": [
        {
          "address": "0x5fbdb2315678afecb367f032d93f642f64180aa3",
          "topics": [
            "0xf6391f5c32d9c69d2a47ea670b442974b53935d1edc7fd64eb21e047a839171b",
            "0x55435dd261a4b9b3364963f7738a7a662ad9c84396d64be3365284bb7f0a5041",
            "0x000000000000000000000000f39fd6e51aad88f6f4ce6ab8827279cfffb92266",
            "0x000000000000000000000000f39fd6e51aad88f6f4ce6ab8827279cfffb92266"
          ],
          "data": "0x",
          "blockHash": "0x748beed8e344b76b445ab570e0d90532c9ba791351eac419831ac38533a9ab8d",
          "blockNumber": "0x4",
          "blockTimestamp": "0x69d3107a",
          "transactionHash": "0xfe14a048f9acb419dcc6d20bc5e5843c0374b75daf2d7c08170091ced49af7a4",
          "transactionIndex": "0x1",
          "logIndex": "0x1",
          "removed": false
        }
      ],
      "logsBloom": "0x00000000000000000000000000000000000000000000000000000000000000000000000000000000000000000000000000200000000000000000000000000000000000000000000000000000000000000000000000000000000000000000000040000040000000000000000100000000000000000000000000000000000000000000000040000000000000000000000000000000000000000000000200004000000000000000000000000000000000000000000000000000000000000000000000000040020000200000000000000000000000002000000000000000000000000000000000000000000000000000000000000000000000000000000000040000",
      "type": "0x2",
      "transactionHash": "0xfe14a048f9acb419dcc6d20bc5e5843c0374b75daf2d7c08170091ced49af7a4",
      "transactionIndex": "0x1",
      "blockHash": "0x748beed8e344b76b445ab570e0d90532c9ba791351eac419831ac38533a9ab8d",
      "blockNumber": "0x4",
      "gasUsed": "0x76d0",
      "effectiveGasPrice": "0x29903c89",
      "blobGasPrice": "0x1",
      "from": "0xf39fd6e51aad88f6f4ce6ab8827279cfffb92266",
      "to": "0x5fbdb2315678afecb367f032d93f642f64180aa3",
      "contractAddress": null
    },
    {
      "status": "0x1",
      "cumulativeGasUsed": "0x15b20",
      "logs": [
        {
          "address": "0x5fbdb2315678afecb367f032d93f642f64180aa3",
          "topics": [
            "0xf6391f5c32d9c69d2a47ea670b442974b53935d1edc7fd64eb21e047a839171b",
            "0x0000000000000000000000000000000000000000000000000000000000000000",
            "0x000000000000000000000000f39fd6e51aad88f6f4ce6ab8827279cfffb92266",
            "0x000000000000000000000000f39fd6e51aad88f6f4ce6ab8827279cfffb92266"
          ],
          "data": "0x",
          "blockHash": "0x748beed8e344b76b445ab570e0d90532c9ba791351eac419831ac38533a9ab8d",
          "blockNumber": "0x4",
          "blockTimestamp": "0x69d3107a",
          "transactionHash": "0x58def66473ed969533dbcc46721cac4c57c8d30776393f77870612e9ddaab5c4",
          "transactionIndex": "0x2",
          "logIndex": "0x2",
          "removed": false
        }
      ],
      "logsBloom": "0x00000000000000000000000000000000000000000000000000000000000000000000000000000000000000000000000000200000000000000000000000000000000000000000000000000000000000000000000000000000000000000000000040000040020000000000000100000800000000000000000000000000000000000000000040000000000000000000000000000000000000000000000200000000000000000000000000000000000000000000000000000000000000000000000000000040000000200000000000000000000000002000000000000000000020000000000000000000000000000000000000000000000000000000000000000000",
      "type": "0x2",
      "transactionHash": "0x58def66473ed969533dbcc46721cac4c57c8d30776393f77870612e9ddaab5c4",
      "transactionIndex": "0x2",
      "blockHash": "0x748beed8e344b76b445ab570e0d90532c9ba791351eac419831ac38533a9ab8d",
      "blockNumber": "0x4",
      "gasUsed": "0x6d80",
      "effectiveGasPrice": "0x29903c89",
      "blobGasPrice": "0x1",
      "from": "0xf39fd6e51aad88f6f4ce6ab8827279cfffb92266",
      "to": "0x5fbdb2315678afecb367f032d93f642f64180aa3",
      "contractAddress": null
    }
  ],
  "libraries": [],
  "pending": [],
  "returns": {},
  "timestamp": 1775439994096,
  "chain": 31337,
  "commit": "be184b4"
}